{
  "contractName": "MedicalRecords",
  "abi": [
    {
      "constant": true,
      "inputs": [
        {
          "name": "",
          "type": "address"
        }
      ],
      "name": "addressToRecord",
      "outputs": [
        {
          "name": "problems",
          "type": "string"
        },
        {
          "name": "medications",
          "type": "string"
        },
        {
          "name": "allergies",
          "type": "string"
        },
        {
          "name": "weight",
          "type": "uint16"
        },
        {
          "name": "height",
          "type": "uint16"
        }
      ],
      "payable": false,
      "stateMutability": "view",
      "type": "function",
      "signature": "0xf94e83ed"
    },
    {
      "constant": false,
      "inputs": [
        {
          "name": "_problems",
          "type": "string"
        },
        {
          "name": "_medications",
          "type": "string"
        },
        {
          "name": "_allergies",
          "type": "string"
        },
        {
          "name": "_weight",
          "type": "uint16"
        },
        {
          "name": "_height",
          "type": "uint16"
        }
      ],
      "name": "createRecord",
      "outputs": [],
      "payable": false,
      "stateMutability": "nonpayable",
      "type": "function",
      "signature": "0x4c56b210"
    },
    {
      "constant": false,
      "inputs": [
        {
          "name": "_problems",
          "type": "string"
        }
      ],
      "name": "updateRecordProblems",
      "outputs": [],
      "payable": false,
      "stateMutability": "nonpayable",
      "type": "function",
      "signature": "0x96992fb7"
    },
    {
      "constant": false,
      "inputs": [
        {
          "name": "_medications",
          "type": "string"
        }
      ],
      "name": "updateRecordMedications",
      "outputs": [],
      "payable": false,
      "stateMutability": "nonpayable",
      "type": "function",
      "signature": "0xe99e1ef7"
    },
    {
      "constant": false,
      "inputs": [
        {
          "name": "_allergies",
          "type": "string"
        }
      ],
      "name": "updateRecordAllergies",
      "outputs": [],
      "payable": false,
      "stateMutability": "nonpayable",
      "type": "function",
      "signature": "0x5b1a5647"
    },
    {
      "constant": false,
      "inputs": [
        {
          "name": "_weight",
          "type": "uint16"
        }
      ],
      "name": "updateRecordWeight",
      "outputs": [],
      "payable": false,
      "stateMutability": "nonpayable",
      "type": "function",
      "signature": "0xc29a12c6"
    },
    {
      "constant": false,
      "inputs": [
        {
          "name": "_height",
          "type": "uint16"
        }
      ],
      "name": "updateRecordHeight",
      "outputs": [],
      "payable": false,
      "stateMutability": "nonpayable",
      "type": "function",
      "signature": "0x0742f993"
    }
  ],
  "bytecode": "0x608060405234801561001057600080fd5b50610b93806100206000396000f300608060405260043610610083576000357c0100000000000000000000000000000000000000000000000000000000900463ffffffff1680630742f993146100885780634c56b210146100b95780635b1a5647146101ca57806396992fb714610233578063c29a12c61461029c578063e99e1ef7146102cd578063f94e83ed14610336575b600080fd5b34801561009457600080fd5b506100b7600480360381019080803561ffff1690602001909291905050506104e8565b005b3480156100c557600080fd5b506101c8600480360381019080803590602001908201803590602001908080601f0160208091040260200160405190810160405280939291908181526020018383808284378201915050505050509192919290803590602001908201803590602001908080601f0160208091040260200160405190810160405280939291908181526020018383808284378201915050505050509192919290803590602001908201803590602001908080601f0160208091040260200160405190810160405280939291908181526020018383808284378201915050505050509192919290803561ffff169060200190929190803561ffff16906020019092919050505061054d565b005b3480156101d657600080fd5b50610231600480360381019080803590602001908201803590602001908080601f016020809104026020016040519081016040528093929190818152602001838380828437820191505050505050919291929050505061066e565b005b34801561023f57600080fd5b5061029a600480360381019080803590602001908201803590602001908080601f01602080910402602001604051908101604052809392919081815260200183838082843782019150505050505091929192905050506106cd565b005b3480156102a857600080fd5b506102cb600480360381019080803561ffff16906020019092919050505061072c565b005b3480156102d957600080fd5b50610334600480360381019080803590602001908201803590602001908080601f0160208091040260200160405190810160405280939291908181526020018383808284378201915050505050509192919290505050610791565b005b34801561034257600080fd5b50610377600480360381019080803573ffffffffffffffffffffffffffffffffffffffff1690602001909291905050506107f0565b604051808060200180602001806020018661ffff1661ffff1681526020018561ffff1661ffff168152602001848103845289818151815260200191508051906020019080838360005b838110156103db5780820151818401526020810190506103c0565b50505050905090810190601f1680156104085780820380516001836020036101000a031916815260200191505b50848103835288818151815260200191508051906020019080838360005b83811015610441578082015181840152602081019050610426565b50505050905090810190601f16801561046e5780820380516001836020036101000a031916815260200191505b50848103825287818151815260200191508051906020019080838360005b838110156104a757808201518184015260208101905061048c565b50505050905090810190601f1680156104d45780820380516001836020036101000a031916815260200191505b509850505050505050505060405180910390f35b60008060003373ffffffffffffffffffffffffffffffffffffffff1673ffffffffffffffffffffffffffffffffffffffff1681526020019081526020016000209050818160030160026101000a81548161ffff021916908361ffff1602179055505050565b610555610a0a565b60a0604051908101604052808781526020018681526020018581526020018461ffff1681526020018361ffff168152509050806000803373ffffffffffffffffffffffffffffffffffffffff1673ffffffffffffffffffffffffffffffffffffffff16815260200190815260200160002060008201518160000190805190602001906105e2929190610a42565b5060208201518160010190805190602001906105ff929190610a42565b50604082015181600201908051906020019061061c929190610a42565b5060608201518160030160006101000a81548161ffff021916908361ffff16021790555060808201518160030160026101000a81548161ffff021916908361ffff160217905550905050505050505050565b60008060003373ffffffffffffffffffffffffffffffffffffffff1673ffffffffffffffffffffffffffffffffffffffff1681526020019081526020016000209050818160020190805190602001906106c8929190610ac2565b505050565b60008060003373ffffffffffffffffffffffffffffffffffffffff1673ffffffffffffffffffffffffffffffffffffffff168152602001908152602001600020905081816000019080519060200190610727929190610ac2565b505050565b60008060003373ffffffffffffffffffffffffffffffffffffffff1673ffffffffffffffffffffffffffffffffffffffff1681526020019081526020016000209050818160030160006101000a81548161ffff021916908361ffff1602179055505050565b60008060003373ffffffffffffffffffffffffffffffffffffffff1673ffffffffffffffffffffffffffffffffffffffff1681526020019081526020016000209050818160010190805190602001906107eb929190610ac2565b505050565b6000602052806000526040600020600091509050806000018054600181600116156101000203166002900480601f01602080910402602001604051908101604052809291908181526020018280546001816001161561010002031660029004801561089c5780601f106108715761010080835404028352916020019161089c565b820191906000526020600020905b81548152906001019060200180831161087f57829003601f168201915b505050505090806001018054600181600116156101000203166002900480601f01602080910402602001604051908101604052809291908181526020018280546001816001161561010002031660029004801561093a5780601f1061090f5761010080835404028352916020019161093a565b820191906000526020600020905b81548152906001019060200180831161091d57829003601f168201915b505050505090806002018054600181600116156101000203166002900480601f0160208091040260200160405190810160405280929190818152602001828054600181600116156101000203166002900480156109d85780601f106109ad576101008083540402835291602001916109d8565b820191906000526020600020905b8154815290600101906020018083116109bb57829003601f168201915b5050505050908060030160009054906101000a900461ffff16908060030160029054906101000a900461ffff16905085565b60a060405190810160405280606081526020016060815260200160608152602001600061ffff168152602001600061ffff1681525090565b828054600181600116156101000203166002900490600052602060002090601f016020900481019282601f10610a8357805160ff1916838001178555610ab1565b82800160010185558215610ab1579182015b82811115610ab0578251825591602001919060010190610a95565b5b509050610abe9190610b42565b5090565b828054600181600116156101000203166002900490600052602060002090601f016020900481019282601f10610b0357805160ff1916838001178555610b31565b82800160010185558215610b31579182015b82811115610b30578251825591602001919060010190610b15565b5b509050610b3e9190610b42565b5090565b610b6491905b80821115610b60576000816000905550600101610b48565b5090565b905600a165627a7a72305820788075eb9ca6cd1b93dfefd3a4e02fdd895df617c2b5b0624dea8f801888e7cc0029",
  "source": "pragma solidity ^0.4.24;\n\ncontract MedicalRecords {\n\n    struct Record {\n        string problems;\n        string medications;\n        string allergies;\n        uint16 weight;\n        uint16 height;\n    }\n\n    mapping(address => Record) public addressToRecord;\n\n    function createRecord(string _problems, string _medications,\n        string _allergies, uint16 _weight, uint16 _height) public {\n\n        Record memory newRecord = Record(_problems, _medications, _allergies, _weight, _height);\n        addressToRecord[msg.sender] = newRecord;\n    }\n\n    function updateRecordProblems(string _problems) public {\n        Record storage record = addressToRecord[msg.sender];\n        record.problems = _problems;\n    }\n\n    function updateRecordMedications(string _medications) public {\n        Record storage record = addressToRecord[msg.sender];\n        record.medications = _medications;\n    }\n\n    function updateRecordAllergies(string _allergies) public {\n        Record storage record = addressToRecord[msg.sender];\n        record.allergies = _allergies;\n    }\n\n    function updateRecordWeight(uint16 _weight) public {\n        Record storage record = addressToRecord[msg.sender];\n        record.weight = _weight;\n    }\n\n    function updateRecordHeight(uint16 _height) public {\n        Record storage record = addressToRecord[msg.sender];\n        record.height = _height;\n    }\n\n}\n",
  "sourcePath": "/Users/seancasey/Sites/studytheblockchain/projects/medical-records/contracts/MedicalRecords.sol",
  "compiler": {
    "name": "solc",
    "version": "0.4.24+commit.e67f0147.Emscripten.clang"
  },
  "schemaVersion": "3.0.6",
  "updatedAt": "2019-04-11T22:17:44.782Z",
  "devdoc": {
    "methods": {}
  },
  "userdoc": {
    "methods": {}
  }
}