{
  "contractName": "CostAverageOrderBook",
  "abi": [
    {
      "constant": true,
      "inputs": [
        {
          "name": "",
          "type": "address"
        },
        {
          "name": "",
          "type": "uint256"
        }
      ],
      "name": "ownerToOrderIds",
      "outputs": [
        {
          "name": "",
          "type": "uint256"
        }
      ],
      "payable": false,
      "stateMutability": "view",
      "type": "function",
      "signature": "0x46763885"
    },
    {
      "constant": true,
      "inputs": [
        {
          "name": "",
          "type": "uint256"
        }
      ],
      "name": "idToCostAverageOrder",
      "outputs": [
        {
          "name": "owner",
          "type": "address"
        },
        {
          "name": "targetCurrency",
          "type": "address"
        },
        {
          "name": "amount",
          "type": "uint256"
        },
        {
          "name": "frequency",
          "type": "uint256"
        },
        {
          "name": "lastConversionTimestamp",
          "type": "uint256"
        },
        {
          "name": "sourceCurrencyBalance",
          "type": "uint256"
        },
        {
          "name": "targetCurrencyConverted",
          "type": "uint256"
        },
        {
          "name": "batches",
          "type": "uint8"
        },
        {
          "name": "batchesExecuted",
          "type": "uint8"
        }
      ],
      "payable": false,
      "stateMutability": "view",
      "type": "function",
      "signature": "0x5c70e154"
    },
    {
      "constant": true,
      "inputs": [],
      "name": "id",
      "outputs": [
        {
          "name": "",
          "type": "uint256"
        }
      ],
      "payable": false,
      "stateMutability": "view",
      "type": "function",
      "signature": "0xaf640d0f"
    },
    {
      "inputs": [
        {
          "name": "_uniswapFactoryAddress",
          "type": "address"
        }
      ],
      "payable": true,
      "stateMutability": "payable",
      "type": "constructor",
      "signature": "constructor"
    },
    {
      "constant": false,
      "inputs": [
        {
          "name": "_amount",
          "type": "uint256"
        },
        {
          "name": "_targetCurrency",
          "type": "address"
        },
        {
          "name": "_frequency",
          "type": "uint256"
        },
        {
          "name": "_batches",
          "type": "uint8"
        }
      ],
      "name": "createOrder",
      "outputs": [
        {
          "name": "id_",
          "type": "uint256"
        }
      ],
      "payable": true,
      "stateMutability": "payable",
      "type": "function",
      "signature": "0x7c61c1e7"
    },
    {
      "constant": true,
      "inputs": [
        {
          "name": "_id",
          "type": "uint256"
        }
      ],
      "name": "getOrder",
      "outputs": [
        {
          "name": "id_",
          "type": "uint256"
        },
        {
          "name": "amount_",
          "type": "uint256"
        },
        {
          "name": "targetCurrency_",
          "type": "address"
        },
        {
          "name": "frequency_",
          "type": "uint256"
        },
        {
          "name": "batches_",
          "type": "uint8"
        },
        {
          "name": "batchesExecuted_",
          "type": "uint8"
        },
        {
          "name": "lastConversionTimestamp_",
          "type": "uint256"
        },
        {
          "name": "targetCurrencyConverted_",
          "type": "uint256"
        }
      ],
      "payable": false,
      "stateMutability": "view",
      "type": "function",
      "signature": "0xd09ef241"
    },
    {
      "constant": true,
      "inputs": [
        {
          "name": "_owner",
          "type": "address"
        },
        {
          "name": "_index",
          "type": "uint256"
        }
      ],
      "name": "getOrderForOwnerIndex",
      "outputs": [
        {
          "name": "id_",
          "type": "uint256"
        },
        {
          "name": "amount_",
          "type": "uint256"
        },
        {
          "name": "targetCurrency_",
          "type": "address"
        },
        {
          "name": "frequency_",
          "type": "uint256"
        },
        {
          "name": "batches_",
          "type": "uint8"
        },
        {
          "name": "batchesExecuted_",
          "type": "uint8"
        },
        {
          "name": "lastConversionTimestamp_",
          "type": "uint256"
        },
        {
          "name": "targetCurrencyConverted_",
          "type": "uint256"
        }
      ],
      "payable": false,
      "stateMutability": "view",
      "type": "function",
      "signature": "0xdd004fb4"
    },
    {
      "constant": true,
      "inputs": [
        {
          "name": "_owner",
          "type": "address"
        }
      ],
      "name": "getOrderCountForOwner",
      "outputs": [
        {
          "name": "count_",
          "type": "uint256"
        }
      ],
      "payable": false,
      "stateMutability": "view",
      "type": "function",
      "signature": "0xa8c3d475"
    },
    {
      "constant": true,
      "inputs": [
        {
          "name": "_id",
          "type": "uint256"
        }
      ],
      "name": "checkConversionDue",
      "outputs": [
        {
          "name": "",
          "type": "bool"
        }
      ],
      "payable": false,
      "stateMutability": "view",
      "type": "function",
      "signature": "0x838bac1e"
    },
    {
      "constant": false,
      "inputs": [],
      "name": "executeDueConversions",
      "outputs": [],
      "payable": false,
      "stateMutability": "nonpayable",
      "type": "function",
      "signature": "0x2e84767e"
    }
  ],
  "bytecode": "0x60806040526040516020806110598339810180604052602081101561002357600080fd5b810190808051906020019092919050505080600160006101000a81548173ffffffffffffffffffffffffffffffffffffffff021916908373ffffffffffffffffffffffffffffffffffffffff16021790555050610fd4806100856000396000f3fe6080604052600436106100a3576000357c010000000000000000000000000000000000000000000000000000000090048063838bac1e11610076578063838bac1e14610292578063a8c3d475146102e5578063af640d0f1461034a578063d09ef24114610375578063dd004fb41461042d576100a3565b80632e84767e146100a857806346763885146100bf5780635c70e1541461012e5780637c61c1e714610219575b600080fd5b3480156100b457600080fd5b506100bd610505565b005b3480156100cb57600080fd5b50610118600480360360408110156100e257600080fd5b81019080803573ffffffffffffffffffffffffffffffffffffffff16906020019092919080359060200190929190505050610545565b6040518082815260200191505060405180910390f35b34801561013a57600080fd5b506101676004803603602081101561015157600080fd5b8101908080359060200190929190505050610575565b604051808a73ffffffffffffffffffffffffffffffffffffffff1673ffffffffffffffffffffffffffffffffffffffff1681526020018973ffffffffffffffffffffffffffffffffffffffff1673ffffffffffffffffffffffffffffffffffffffff1681526020018881526020018781526020018681526020018581526020018481526020018360ff1660ff1681526020018260ff1660ff168152602001995050505050505050505060405180910390f35b61027c6004803603608081101561022f57600080fd5b8101908080359060200190929190803573ffffffffffffffffffffffffffffffffffffffff16906020019092919080359060200190929190803560ff16906020019092919050505061061d565b6040518082815260200191505060405180910390f35b34801561029e57600080fd5b506102cb600480360360208110156102b557600080fd5b8101908080359060200190929190505050610855565b604051808215151515815260200191505060405180910390f35b3480156102f157600080fd5b506103346004803603602081101561030857600080fd5b81019080803573ffffffffffffffffffffffffffffffffffffffff169060200190929190505050610a00565b6040518082815260200191505060405180910390f35b34801561035657600080fd5b5061035f610a4c565b6040518082815260200191505060405180910390f35b34801561038157600080fd5b506103ae6004803603602081101561039857600080fd5b8101908080359060200190929190505050610a52565b604051808981526020018881526020018773ffffffffffffffffffffffffffffffffffffffff1673ffffffffffffffffffffffffffffffffffffffff1681526020018681526020018560ff1660ff1681526020018460ff1660ff1681526020018381526020018281526020019850505050505050505060405180910390f35b34801561043957600080fd5b506104866004803603604081101561045057600080fd5b81019080803573ffffffffffffffffffffffffffffffffffffffff16906020019092919080359060200190929190505050610be1565b604051808981526020018881526020018773ffffffffffffffffffffffffffffffffffffffff1673ffffffffffffffffffffffffffffffffffffffff1681526020018681526020018560ff1660ff1681526020018460ff1660ff1681526020018381526020018281526020019850505050505050505060405180910390f35b60008090505b60005481111515610542576001151561052382610855565b151514156105355761053481610c69565b5b808060010191505061050b565b50565b60036020528160005260406000208181548110151561056057fe5b90600052602060002001600091509150505481565b60026020528060005260406000206000915090508060000160009054906101000a900473ffffffffffffffffffffffffffffffffffffffff16908060010160009054906101000a900473ffffffffffffffffffffffffffffffffffffffff16908060020154908060030154908060040154908060050154908060060154908060070160009054906101000a900460ff16908060070160019054906101000a900460ff16905089565b6000348514151561062d57600080fd5b610635610f29565b610120604051908101604052803373ffffffffffffffffffffffffffffffffffffffff1681526020018673ffffffffffffffffffffffffffffffffffffffff16815260200187815260200185815260200160008152602001878152602001600081526020018460ff168152602001600060ff16815250905080600260008054815260200190815260200160002060008201518160000160006101000a81548173ffffffffffffffffffffffffffffffffffffffff021916908373ffffffffffffffffffffffffffffffffffffffff16021790555060208201518160010160006101000a81548173ffffffffffffffffffffffffffffffffffffffff021916908373ffffffffffffffffffffffffffffffffffffffff16021790555060408201518160020155606082015181600301556080820151816004015560a0820151816005015560c0820151816006015560e08201518160070160006101000a81548160ff021916908360ff1602179055506101008201518160070160016101000a81548160ff021916908360ff160217905550905050600360003373ffffffffffffffffffffffffffffffffffffffff1673ffffffffffffffffffffffffffffffffffffffff16815260200190815260200160002060005490806001815401808255809150509060018203906000526020600020016000909192909190915055506000808154809291906001019190505550600160005403915050949350505050565b600061085f610f29565b6002600084815260200190815260200160002061012060405190810160405290816000820160009054906101000a900473ffffffffffffffffffffffffffffffffffffffff1673ffffffffffffffffffffffffffffffffffffffff1673ffffffffffffffffffffffffffffffffffffffff1681526020016001820160009054906101000a900473ffffffffffffffffffffffffffffffffffffffff1673ffffffffffffffffffffffffffffffffffffffff1673ffffffffffffffffffffffffffffffffffffffff16815260200160028201548152602001600382015481526020016004820154815260200160058201548152602001600682015481526020016007820160009054906101000a900460ff1660ff1660ff1681526020016007820160019054906101000a900460ff1660ff1660ff168152505090508060e0015160ff1681610100015160ff161015156109bb5760009150506109fb565b6000816080015114156109d25760019150506109fb565b600081608001514203905081606001518110156109f4576000925050506109fb565b6001925050505b919050565b6000600360008373ffffffffffffffffffffffffffffffffffffffff1673ffffffffffffffffffffffffffffffffffffffff168152602001908152602001600020805490509050919050565b60005481565b600080600080600080600080610a66610f29565b600260008b815260200190815260200160002061012060405190810160405290816000820160009054906101000a900473ffffffffffffffffffffffffffffffffffffffff1673ffffffffffffffffffffffffffffffffffffffff1673ffffffffffffffffffffffffffffffffffffffff1681526020016001820160009054906101000a900473ffffffffffffffffffffffffffffffffffffffff1673ffffffffffffffffffffffffffffffffffffffff1673ffffffffffffffffffffffffffffffffffffffff16815260200160028201548152602001600382015481526020016004820154815260200160058201548152602001600682015481526020016007820160009054906101000a900460ff1660ff1660ff1681526020016007820160019054906101000a900460ff1660ff1660ff16815250509050898160400151826020015183606001518460e0015185610100015186608001518760c001519850985098509850985098509850985050919395975091939597565b600080600080600080600080610c4c600360008c73ffffffffffffffffffffffffffffffffffffffff1673ffffffffffffffffffffffffffffffffffffffff1681526020019081526020016000208a815481101515610c3c57fe5b9060005260206000200154610a52565b975097509750975097509750975097509295985092959890939650565b60006002600083815260200190815260200160002090506000610ca182600201548360070160009054906101000a900460ff16610d42565b905080826005015410151515610cb657600080fd5b80826005016000828254039250508190555060018260070160018282829054906101000a900460ff160192506101000a81548160ff021916908360ff1602179055506000610d288360010160009054906101000a900473ffffffffffffffffffffffffffffffffffffffff1683610d5b565b905080836006016000828254019250508190555050505050565b60008160ff1683811515610d5257fe5b04905092915050565b600080600160009054906101000a900473ffffffffffffffffffffffffffffffffffffffff1673ffffffffffffffffffffffffffffffffffffffff166306f2bf62856040518263ffffffff167c0100000000000000000000000000000000000000000000000000000000028152600401808273ffffffffffffffffffffffffffffffffffffffff1673ffffffffffffffffffffffffffffffffffffffff16815260200191505060206040518083038186803b158015610e1957600080fd5b505afa158015610e2d573d6000803e3d6000fd5b505050506040513d6020811015610e4357600080fd5b810190808051906020019092919050505090506000819050600060019050600061012c420190508273ffffffffffffffffffffffffffffffffffffffff1663f39b5b9b8784846040518463ffffffff167c010000000000000000000000000000000000000000000000000000000002815260040180838152602001828152602001925050506020604051808303818588803b158015610ee157600080fd5b505af1158015610ef5573d6000803e3d6000fd5b50505050506040513d6020811015610f0c57600080fd5b810190808051906020019092919050505094505050505092915050565b61012060405190810160405280600073ffffffffffffffffffffffffffffffffffffffff168152602001600073ffffffffffffffffffffffffffffffffffffffff1681526020016000815260200160008152602001600081526020016000815260200160008152602001600060ff168152602001600060ff168152509056fea165627a7a723058202c3cd5077a788eaeef8ce7fb93aa809c0a8449d3e96aaec07ac6b994295c47630029",
  "source": "pragma solidity ^0.5.2;\n\n// import safemath & use for division calc\n\nimport './UniswapFactoryInterface.sol';\nimport './UniswapExchangeInterface.sol';\n\ncontract CostAverageOrderBook {\n    uint256 public id;\n    // address private remoteCaller; // TODO\n\n    // address internal uniswapFactoryAddress;\n    UniswapFactoryInterface internal factory;\n\n    struct OrderInfo {\n        address owner;\n        address targetCurrency;\n        // address contribCurrency; // either ETH or DAI // consider enum\n        uint256 amount;\n        uint256 frequency; // in seconds\n        uint256 lastConversionTimestamp;\n        uint256 sourceCurrencyBalance;\n        uint256 targetCurrencyConverted;\n        uint8 batches; // number of batches, up to 255\n        uint8 batchesExecuted;\n        // bool isActive; // wait until need this\n    }\n    mapping(uint256 => OrderInfo) public idToCostAverageOrder; // internal or public?\n    mapping(address => uint256[]) public ownerToOrderIds;\n\n    constructor (address _uniswapFactoryAddress) public payable { // I think we need payable to instantiate the contract with ETH\n        // uniswapFactoryAddress = _uniswapFactoryAddress;\n        factory = UniswapFactoryInterface(_uniswapFactoryAddress);\n    }\n\n    function createOrder (uint256 _amount, address _targetCurrency, uint256 _frequency, uint8 _batches) public payable returns (uint256 id_) {\n        require(_amount == msg.value); // Can't use this if they send DAI\n\n        OrderInfo memory newOrder = OrderInfo({\n            amount: _amount,\n            targetCurrency: _targetCurrency,\n            frequency: _frequency,\n            batches: _batches,\n            owner: msg.sender,\n            sourceCurrencyBalance: _amount, // take fee from here\n            targetCurrencyConverted: 0,\n            batchesExecuted: 0,\n            lastConversionTimestamp: 0\n        });\n\n        idToCostAverageOrder[id] = newOrder;\n        ownerToOrderIds[msg.sender].push(id);\n\n        id++;\n\n        return id-1;\n    }\n\n    function getOrder (uint256 _id) view public returns (\n        uint256 id_, uint256 amount_, address targetCurrency_, uint256 frequency_, uint8 batches_,\n        uint8 batchesExecuted_, uint256 lastConversionTimestamp_, uint256 targetCurrencyConverted_) {\n        OrderInfo memory order = idToCostAverageOrder[_id];\n\n        return (_id, order.amount, order.targetCurrency, order.frequency, order.batches,\n            order.batchesExecuted, order.lastConversionTimestamp, order.targetCurrencyConverted);\n    }\n\n    function getOrderForOwnerIndex (address _owner, uint256 _index) view public returns (\n        uint256 id_, uint256 amount_, address targetCurrency_, uint256 frequency_, uint8 batches_,\n        uint8 batchesExecuted_, uint256 lastConversionTimestamp_, uint256 targetCurrencyConverted_) {\n        return getOrder(ownerToOrderIds[_owner][_index]);\n    }\n\n    function getOrderCountForOwner (address _owner) view public returns (\n        uint256 count_) {\n        count_ = ownerToOrderIds[_owner].length;\n    }\n\n    // Q: should this be done by the server since it does not cost gas? Prob not b/c need to know within the current block...\n    function checkConversionDue (uint256 _id) view public returns (bool) {\n        OrderInfo memory order = idToCostAverageOrder[_id];\n\n        // Check if there should be batches remaining\n        if (order.batchesExecuted >= order.batches) return false;\n\n        // Make sure order is still active\n        // if (idIsActive[_id] == false) { return false; }\n\n        // Check if the first conversion has been executed\n        if (order.lastConversionTimestamp == 0) return true;\n\n        // Check if enough time has lapsed to execute the next conversion\n        uint256 timeDelta = now - order.lastConversionTimestamp;\n        if (timeDelta < order.frequency) return false;\n\n        return true;\n    }\n\n    // THIS IS THE FUNCTION OUR SERVER WILL CALL TO EXECUTE ORDERS\n    function executeDueConversions () external {\n        // require(msg.sender == remoteCaller);\n\n        // Is it going to be super expensive to loop? Is there a better way to\n        // do this? Should I return indexes to the server and have it call them one by one?\n        for (uint256 i=0; i<=id; i++) {\n            if (checkConversionDue(i) == true) {\n                convertCurrency(i);\n            }\n        }\n    }\n\n    function convertCurrency(uint256 _id) private {\n        OrderInfo storage order = idToCostAverageOrder[_id];\n\n        uint256 batchValue = valuePerBatch(order.amount, order.batches);\n\n        // Sanity checks\n        require(order.sourceCurrencyBalance >= batchValue);\n\n        // Update values before performing conversion\n        order.sourceCurrencyBalance -= batchValue;\n        order.batchesExecuted += 1;\n\n        // ** CONVERT HERE **\n        uint256 amountReceived = exchangeCurrency(order.targetCurrency, batchValue);\n\n        // ** GET THE NO. TOKENS RECEIVED HERE **\n        // uint256 amountReceived = 10;\n        order.targetCurrencyConverted += amountReceived;\n    }\n\n\n    // TODO: can also use ethToTokenTransferInput with `recipient` param to transfer tokens directly to the user\n    function exchangeCurrency(address _targetCurrency, uint256 _amountSourceCurrency) private returns (uint256 amountReceived_) {\n        // Set up the Uniswap exchange interface by finding the token's address via the factory\n        address exchangeAddress = factory.getExchange(_targetCurrency);\n        UniswapExchangeInterface exchange = UniswapExchangeInterface(exchangeAddress);\n\n        uint256 min_tokens = 1; // TODO: implement this correctly, see \"sell order\" logic in docs\n        uint256 deadline = now + 300; // this is the value in the docs; used so nodes can't hold off on unsigned txs and wait for optimal times to sell/arbitrage\n        amountReceived_ = exchange.ethToTokenSwapInput.value(_amountSourceCurrency)(min_tokens, deadline); // change from swap to transfer and add recipient\n    }\n\n    // TODO: deal with uneven divisibility\n    function valuePerBatch(uint256 _amount, uint8 _batches) pure internal returns (uint256) {\n        return _amount / _batches;\n    }\n}\n",
  "sourcePath": "/Users/seancasey/Sites/studytheblockchain/projects/final-project/contracts/CostAverageOrderBook.sol",
  "compiler": {
    "name": "solc",
    "version": "0.5.2+commit.1df8f40c.Emscripten.clang"
  },
  "schemaVersion": "3.0.6",
  "updatedAt": "2019-05-04T03:16:31.967Z",
  "devdoc": {
    "methods": {}
  },
  "userdoc": {
    "methods": {}
  }
}