{
  "contractName": "CostAverageOrderBook",
  "abi": [
    {
      "constant": true,
      "inputs": [
        {
          "name": "",
          "type": "uint256"
        }
      ],
      "name": "idToCostAverageOrder",
      "outputs": [
        {
          "name": "owner",
          "type": "address"
        },
        {
          "name": "targetCurrency",
          "type": "address"
        },
        {
          "name": "amount",
          "type": "uint256"
        },
        {
          "name": "frequency",
          "type": "uint256"
        },
        {
          "name": "lastConversionTimestamp",
          "type": "uint256"
        },
        {
          "name": "sourceCurrencyBalance",
          "type": "uint256"
        },
        {
          "name": "targetCurrencyConverted",
          "type": "uint256"
        },
        {
          "name": "batches",
          "type": "uint8"
        },
        {
          "name": "batchesExecuted",
          "type": "uint8"
        }
      ],
      "payable": false,
      "stateMutability": "view",
      "type": "function"
    },
    {
      "constant": true,
      "inputs": [],
      "name": "id",
      "outputs": [
        {
          "name": "",
          "type": "uint256"
        }
      ],
      "payable": false,
      "stateMutability": "view",
      "type": "function"
    },
    {
      "inputs": [
        {
          "name": "_uniswapFactoryAddress",
          "type": "address"
        }
      ],
      "payable": true,
      "stateMutability": "payable",
      "type": "constructor"
    },
    {
      "constant": false,
      "inputs": [
        {
          "name": "_amount",
          "type": "uint256"
        },
        {
          "name": "_targetCurrency",
          "type": "address"
        },
        {
          "name": "_frequency",
          "type": "uint256"
        },
        {
          "name": "_batches",
          "type": "uint8"
        }
      ],
      "name": "createCostAverageOrder",
      "outputs": [
        {
          "name": "id_",
          "type": "uint256"
        }
      ],
      "payable": true,
      "stateMutability": "payable",
      "type": "function"
    },
    {
      "constant": true,
      "inputs": [
        {
          "name": "_id",
          "type": "uint256"
        }
      ],
      "name": "getCostAverageOrder",
      "outputs": [
        {
          "name": "amount_",
          "type": "uint256"
        },
        {
          "name": "targetCurrency_",
          "type": "address"
        },
        {
          "name": "frequency_",
          "type": "uint256"
        },
        {
          "name": "batches_",
          "type": "uint8"
        },
        {
          "name": "batchesExecuted_",
          "type": "uint8"
        },
        {
          "name": "lastConversionTimestamp_",
          "type": "uint256"
        },
        {
          "name": "targetCurrencyConverted_",
          "type": "uint256"
        }
      ],
      "payable": false,
      "stateMutability": "view",
      "type": "function"
    },
    {
      "constant": true,
      "inputs": [
        {
          "name": "_id",
          "type": "uint256"
        }
      ],
      "name": "checkConversionDue",
      "outputs": [
        {
          "name": "",
          "type": "bool"
        }
      ],
      "payable": false,
      "stateMutability": "view",
      "type": "function"
    },
    {
      "constant": false,
      "inputs": [],
      "name": "executeDueConversions",
      "outputs": [],
      "payable": false,
      "stateMutability": "nonpayable",
      "type": "function"
    }
  ],
  "bytecode": "0x6080604052604051602080610d028339810180604052602081101561002357600080fd5b810190808051906020019092919050505080600160006101000a81548173ffffffffffffffffffffffffffffffffffffffff021916908373ffffffffffffffffffffffffffffffffffffffff16021790555050610c7d806100856000396000f3fe608060405260043610610072576000357c0100000000000000000000000000000000000000000000000000000000900480632c62a7ef146100775780632e84767e146101285780635c70e1541461013f578063838bac1e1461022a57806392365c7e1461027d578063af640d0f146102f6575b600080fd5b34801561008357600080fd5b506100b06004803603602081101561009a57600080fd5b8101908080359060200190929190505050610321565b604051808881526020018773ffffffffffffffffffffffffffffffffffffffff1673ffffffffffffffffffffffffffffffffffffffff1681526020018681526020018560ff1660ff1681526020018460ff1660ff16815260200183815260200182815260200197505050505050505060405180910390f35b34801561013457600080fd5b5061013d6104ac565b005b34801561014b57600080fd5b506101786004803603602081101561016257600080fd5b81019080803590602001909291905050506104ec565b604051808a73ffffffffffffffffffffffffffffffffffffffff1673ffffffffffffffffffffffffffffffffffffffff1681526020018973ffffffffffffffffffffffffffffffffffffffff1673ffffffffffffffffffffffffffffffffffffffff1681526020018881526020018781526020018681526020018581526020018481526020018360ff1660ff1681526020018260ff1660ff168152602001995050505050505050505060405180910390f35b34801561023657600080fd5b506102636004803603602081101561024d57600080fd5b8101908080359060200190929190505050610594565b604051808215151515815260200191505060405180910390f35b6102e06004803603608081101561029357600080fd5b8101908080359060200190929190803573ffffffffffffffffffffffffffffffffffffffff16906020019092919080359060200190929190803560ff16906020019092919050505061073f565b6040518082815260200191505060405180910390f35b34801561030257600080fd5b5061030b61090c565b6040518082815260200191505060405180910390f35b6000806000806000806000610334610bd2565b600260008a815260200190815260200160002061012060405190810160405290816000820160009054906101000a900473ffffffffffffffffffffffffffffffffffffffff1673ffffffffffffffffffffffffffffffffffffffff1673ffffffffffffffffffffffffffffffffffffffff1681526020016001820160009054906101000a900473ffffffffffffffffffffffffffffffffffffffff1673ffffffffffffffffffffffffffffffffffffffff1673ffffffffffffffffffffffffffffffffffffffff16815260200160028201548152602001600382015481526020016004820154815260200160058201548152602001600682015481526020016007820160009054906101000a900460ff1660ff1660ff1681526020016007820160019054906101000a900460ff1660ff1660ff168152505090508060400151816020015182606001518360e0015184610100015185608001518660c00151975097509750975097509750975050919395979092949650565b60008090505b600054811115156104e957600115156104ca82610594565b151514156104dc576104db81610912565b5b80806001019150506104b2565b50565b60026020528060005260406000206000915090508060000160009054906101000a900473ffffffffffffffffffffffffffffffffffffffff16908060010160009054906101000a900473ffffffffffffffffffffffffffffffffffffffff16908060020154908060030154908060040154908060050154908060060154908060070160009054906101000a900460ff16908060070160019054906101000a900460ff16905089565b600061059e610bd2565b6002600084815260200190815260200160002061012060405190810160405290816000820160009054906101000a900473ffffffffffffffffffffffffffffffffffffffff1673ffffffffffffffffffffffffffffffffffffffff1673ffffffffffffffffffffffffffffffffffffffff1681526020016001820160009054906101000a900473ffffffffffffffffffffffffffffffffffffffff1673ffffffffffffffffffffffffffffffffffffffff1673ffffffffffffffffffffffffffffffffffffffff16815260200160028201548152602001600382015481526020016004820154815260200160058201548152602001600682015481526020016007820160009054906101000a900460ff1660ff1660ff1681526020016007820160019054906101000a900460ff1660ff1660ff168152505090508060e0015160ff1681610100015160ff161015156106fa57600091505061073a565b60008160800151141561071157600191505061073a565b600081608001514203905081606001518110156107335760009250505061073a565b6001925050505b919050565b6000348514151561074f57600080fd5b610757610bd2565b610120604051908101604052803373ffffffffffffffffffffffffffffffffffffffff1681526020018673ffffffffffffffffffffffffffffffffffffffff16815260200187815260200185815260200160008152602001878152602001600081526020018460ff168152602001600060ff16815250905080600260008054815260200190815260200160002060008201518160000160006101000a81548173ffffffffffffffffffffffffffffffffffffffff021916908373ffffffffffffffffffffffffffffffffffffffff16021790555060208201518160010160006101000a81548173ffffffffffffffffffffffffffffffffffffffff021916908373ffffffffffffffffffffffffffffffffffffffff16021790555060408201518160020155606082015181600301556080820151816004015560a0820151816005015560c0820151816006015560e08201518160070160006101000a81548160ff021916908360ff1602179055506101008201518160070160016101000a81548160ff021916908360ff1602179055509050506000808154809291906001019190505550600160005403915050949350505050565b60005481565b6000600260008381526020019081526020016000209050600061094a82600201548360070160009054906101000a900460ff166109eb565b90508082600501541015151561095f57600080fd5b80826005016000828254039250508190555060018260070160018282829054906101000a900460ff160192506101000a81548160ff021916908360ff16021790555060006109d18360010160009054906101000a900473ffffffffffffffffffffffffffffffffffffffff1683610a04565b905080836006016000828254019250508190555050505050565b60008160ff16838115156109fb57fe5b04905092915050565b600080600160009054906101000a900473ffffffffffffffffffffffffffffffffffffffff1673ffffffffffffffffffffffffffffffffffffffff166306f2bf62856040518263ffffffff167c0100000000000000000000000000000000000000000000000000000000028152600401808273ffffffffffffffffffffffffffffffffffffffff1673ffffffffffffffffffffffffffffffffffffffff16815260200191505060206040518083038186803b158015610ac257600080fd5b505afa158015610ad6573d6000803e3d6000fd5b505050506040513d6020811015610aec57600080fd5b810190808051906020019092919050505090506000819050600060019050600061012c420190508273ffffffffffffffffffffffffffffffffffffffff1663f39b5b9b8784846040518463ffffffff167c010000000000000000000000000000000000000000000000000000000002815260040180838152602001828152602001925050506020604051808303818588803b158015610b8a57600080fd5b505af1158015610b9e573d6000803e3d6000fd5b50505050506040513d6020811015610bb557600080fd5b810190808051906020019092919050505094505050505092915050565b61012060405190810160405280600073ffffffffffffffffffffffffffffffffffffffff168152602001600073ffffffffffffffffffffffffffffffffffffffff1681526020016000815260200160008152602001600081526020016000815260200160008152602001600060ff168152602001600060ff168152509056fea165627a7a7230582026849dd9d2690419a42bb06ac34c71937d3c862015f646c34d62e355ae6371280029",
  "source": "pragma solidity ^0.5.2;\n\n// import safemath & use for division calc\n\nimport './UniswapFactoryInterface.sol';\nimport './UniswapExchangeInterface.sol';\n\ncontract CostAverageOrderBook {\n    uint256 public id;\n    // address private remoteCaller; // TODO\n\n    // address internal uniswapFactoryAddress;\n    UniswapFactoryInterface internal factory;\n\n    struct CostAverageOrderInfo {\n        address owner;\n        address targetCurrency;\n        // address contribCurrency; // either ETH or DAI // consider enum\n        uint256 amount;\n        uint256 frequency; // in seconds\n        uint256 lastConversionTimestamp;\n        uint256 sourceCurrencyBalance;\n        uint256 targetCurrencyConverted;\n        uint8 batches; // number of batches, up to 255\n        uint8 batchesExecuted;\n        // bool isActive; // wait until need this\n\n    }\n    mapping(uint256 => CostAverageOrderInfo) public idToCostAverageOrder; // internal or public?\n\n    constructor (address _uniswapFactoryAddress) public payable { // I think we need payable to instantiate the contract with ETH\n        // uniswapFactoryAddress = _uniswapFactoryAddress;\n        factory = UniswapFactoryInterface(_uniswapFactoryAddress);\n    }\n\n    function createCostAverageOrder (uint256 _amount, address _targetCurrency, uint256 _frequency, uint8 _batches) public payable returns (uint256 id_) {\n        require(_amount == msg.value); // Can't use this if they send DAI\n\n        CostAverageOrderInfo memory newOrder = CostAverageOrderInfo({\n            amount: _amount,\n            targetCurrency: _targetCurrency,\n            frequency: _frequency,\n            batches: _batches,\n            owner: msg.sender,\n            sourceCurrencyBalance: _amount, // take fee from here\n            targetCurrencyConverted: 0,\n            batchesExecuted: 0,\n            lastConversionTimestamp: 0\n        });\n\n        idToCostAverageOrder[id] = newOrder;\n\n        id++;\n\n        return id-1;\n    }\n\n    function getCostAverageOrder (uint256 _id) view public returns (\n        uint256 amount_, address targetCurrency_, uint256 frequency_, uint8 batches_,\n        uint8 batchesExecuted_, uint256 lastConversionTimestamp_, uint256 targetCurrencyConverted_) {\n        CostAverageOrderInfo memory order = idToCostAverageOrder[_id];\n\n        return (order.amount, order.targetCurrency, order.frequency, order.batches,\n            order.batchesExecuted, order.lastConversionTimestamp, order.targetCurrencyConverted);\n    }\n\n    // Q: should this be done by the server since it does not cost gas? Prob not b/c need to know within the current block...\n    function checkConversionDue (uint256 _id) view public returns (bool) {\n        CostAverageOrderInfo memory order = idToCostAverageOrder[_id];\n\n        // Check if there should be batches remaining\n        if (order.batchesExecuted >= order.batches) return false;\n\n        // Make sure order is still active\n        // if (idIsActive[_id] == false) { return false; }\n\n        // Check if the first conversion has been executed\n        if (order.lastConversionTimestamp == 0) return true;\n\n        // Check if enough time has lapsed to execute the next conversion\n        uint256 timeDelta = now - order.lastConversionTimestamp;\n        if (timeDelta < order.frequency) return false;\n\n        return true;\n    }\n\n    // THIS IS THE FUNCTION OUR SERVER WILL CALL TO EXECUTE ORDERS\n    function executeDueConversions () external {\n        // require(msg.sender == remoteCaller);\n\n        // Is it going to be super expensive to loop? Is there a better way to\n        // do this? Should I return indexes to the server and have it call them one by one?\n        for (uint256 i=0; i<=id; i++) {\n            if (checkConversionDue(i) == true) {\n                convertCurrency(i);\n            }\n        }\n    }\n\n    function convertCurrency(uint256 _id) private {\n        CostAverageOrderInfo storage order = idToCostAverageOrder[_id];\n\n        uint256 batchValue = valuePerBatch(order.amount, order.batches);\n\n        // Sanity checks\n        require(order.sourceCurrencyBalance >= batchValue);\n\n        // Update values before performing conversion\n        order.sourceCurrencyBalance -= batchValue;\n        order.batchesExecuted += 1;\n\n        // ** CONVERT HERE **\n        uint256 amountReceived = exchangeCurrency(order.targetCurrency, batchValue);\n\n        // ** GET THE NO. TOKENS RECEIVED HERE **\n        // uint256 amountReceived = 10;\n        order.targetCurrencyConverted += amountReceived;\n    }\n\n\n    // TODO: can also use ethToTokenTransferInput with `recipient` param to transfer tokens directly to the user\n    function exchangeCurrency(address _targetCurrency, uint256 _amountSourceCurrency) private returns (uint256 amountReceived_) {\n        // Set up the Uniswap exchange interface by finding the token's address via the factory\n        address exchangeAddress = factory.getExchange(_targetCurrency);\n        UniswapExchangeInterface exchange = UniswapExchangeInterface(exchangeAddress);\n\n        uint256 min_tokens = 1; // TODO: implement this correctly, see \"sell order\" logic in docs\n        uint256 deadline = now + 300; // this is the value in the docs; used so nodes can't hold off on unsigned txs and wait for optimal times to sell/arbitrage\n        amountReceived_ = exchange.ethToTokenSwapInput.value(_amountSourceCurrency)(min_tokens, deadline); // change from swap to transfer and add recipient\n    }\n\n    // TODO: deal with uneven divisibility\n    function valuePerBatch(uint256 _amount, uint8 _batches) pure internal returns (uint256) {\n        return _amount / _batches;\n    }\n}\n",
  "sourcePath": "/Users/seancasey/Sites/studytheblockchain/projects/final-project/contracts/CostAverageOrderBook.sol",
  "compiler": {
    "name": "solc",
    "version": "0.5.2+commit.1df8f40c.Emscripten.clang"
  },
  "schemaVersion": "3.0.6",
  "updatedAt": "2019-04-28T00:50:53.334Z",
  "devdoc": {
    "methods": {}
  },
  "userdoc": {
    "methods": {}
  }
}